:020000040800F2
:10000000E8F200208D01000889010008890100083C
:10001000890100088901000889010008000000002A
:10002000000000000000000000000000890100083E
:10003000890100080000000089010008890100080A
:100040008901000889010008890100088901000868
:100050008901000889010008890100088901000858
:100060008901000889010008890100088901000848
:100070008901000889010008890100088901000838
:100080008901000889010008890100088901000828
:100090008901000889010008890100088901000818
:1000A000890100088901000889010008D9010008B8
:1000B0007D02000889010008890100088901000803
:1000C00089010008890100088901000889010008E8
:1000D00089010008890100088901000889010008D8
:1000E00089010008890100088901000889010008C8
:1000F00089010008890100088901000889010008B8
:1001000089010008890100088901000889010008A7
:100110008901000889010008890100088901000897
:10012000890100088901000889010008B50200085A
:100130008901000889010008890100088901000877
:100140008901000889010008890100088901000867
:100150008901000889010008890100088901000857
:100160008901000889010008890100088901000847
:100170008901000889010008890100088901000837
:100180008901000889010008FEE700BF08B50D4895
:100190000D4B984207D2C2431A4422F003020432A4
:1001A0000A4900F011FF0A480A494FF0000288424C
:1001B000B8BF40F8042BFADB00F006FCBDE80840AD
:1001C00000F09AB800000020040000207CFE000827
:1001D00004000020E4EA002010B52248042100F0C9
:1001E000B7FE0446012C1F4805D0102100F0B0FED8
:1001F000012828D010BD042100F0B6FE4FF0804049
:1002000000F0BEFD1B28F5D9174B18481A6822F4D8
:1002100040421A601A6842F400421A6060210022CB
:1002200000F01AFD1248002100F092FC114B124917
:100230001B680F488B6000F041FC21460C48BDE86C
:10024000104000F085BC0748102100F08DFE064BE1
:100250001A6822F440421A601A6842F480421A6016
:1002600010BD00BF0000014000000240003001400E
:10027000586402400000002068EA002008B54FF0F2
:100280008040022100F064FE012800D008BD022158
:100290004FF0804000F068FE034A044B04491160AF
:1002A0000022C3F8C82D08BD000000209CDC0020FF
:1002B000040000200C4B1A68120113D598680B49F2
:1002C0000B4A40F0006010B49860D1F8C83D094C6A
:1002D0003233C1F8C83DD1F8C83D02EB4303236077
:1002E0005DF8044B704700BF006402409CDC0020B6
:1002F00004000020000000202DE9F04F012085B00F
:10030000014600F0E5F94FF48000012100F0E0F92A
:100310004FF48050012100F0F3F90120014600F074
:10032000EFF90120DFF8A093DFF8A083D74ED84F74
:10033000014600F0D9F902200121002400F0D4F98F
:100340004FF0020B4FF480634946D248C9F80030A1
:10035000012589F804B089F805B089F8064089F8C4
:10036000074000F0C1FA4946CA4889F804B04FF086
:10037000800A89F805B089F8064089F80740C9F86D
:10038000005000F0B1FA4946C24889F804B089F833
:1003900005B0C9F800A089F8064089F8074000F0C8
:1003A000A3FA5146BB48DFF8149300F0F7FA2A4647
:1003B000B8480A2100F0F4FA21462A46B54800F070
:1003C000EFFAB4480721052200F0EAFA4FF48462FC
:1003D00003234146B048C8F80420A8F80030A8F824
:1003E0000840A8F8024088F80A40039300F07CFC1B
:1003F0004FF0700C4FF480733146A7483382A6F853
:1004000000C0CDF808C0C6F808A0B481758000F01F
:1004100017FDA148082100F069FD29469E4800F01B
:10042000B1FC29469C4800F079FD9B488A2100F0E8
:1004300051FD2A469848042100F060FD96480421A9
:1004400000F092FD2A469448042100F077FD92487E
:1004500040F2024100F040FD2A468F480C2100F096
:100460004DFD8D48102100F07FFD2A468A4810215D
:1004700000F064FD88484FF47E7100F029FD2A46A3
:100480002146854800F03AFD5146834800F090FD32
:100490008148302100F074FD4FF41D7241464FF049
:1004A0008040C8F80420A8F80840A8F80240A8F83E
:1004B000004088F80A4000F017FCDDF808C0A6F8F4
:1004C00000C04FF48073042231464FF080403382E5
:1004D000B260B481758000F071FC4FF0804008215B
:1004E00000F0FCFC29464FF0804000F04BFC5946E0
:1004F0004FF0804000F038FD2A4659464FF08040CA
:1005000000F01CFD51464FF0804000F051FD2146A7
:100510004FF0804000F02CFD4FF08040072100F0AC
:100520003BFD4FF480736022314633825B48039B6E
:10053000B3603280B481758000F040FC5748584E5B
:10054000082100F0CBFC2946544800F01BFC554A1A
:10055000554894814FF4827C4FF4007E11464FF44D
:100560000068A2F802C0A2F80AE01481D4801480C6
:10057000D481A2F8048000F02FFB2A4659464A484D
:1005800000F060FB2946484800F04EFB384600F07A
:10059000CDFA2146454800F0DBFA4FF480614FF078
:1005A000C06C4FF0400E424B4048B9614FF40052CE
:1005B00039464FF0320A4FF4403BC7F800C0C7F845
:1005C0000CE07B603A62FC627C637C62BC63C7F8CF
:1005D0001C807C61C7F810A0C7F828B0C7F8089045
:1005E00000F06CFA3148334900F0DCFA2A46102159
:1005F0002E4800F0B7FA1B2330463370F570747044
:10060000B57000F039FB1C2330463370F570747000
:10061000B57000F031FB3B2330463370F5707470D9
:10062000B57000F029FB232330463370F5707470E9
:10063000B57000F021FB224647F2305329F8142010
:1006400001349C424FF00005F8D11B491B484EF67F
:10065000602200F0B9FC0223009329462A460323B6
:10066000174800F059F829464FF48072042300958A
:10067000144800F051F84FF08040012100F090FB49
:100680000548012100F08CFBFEE700BFB4EA002022
:1006900068EA002000000240000001400004004021
:1006A000A4EA0020C8EA002000300140586402405B
:1006B0000C30014000800018FC10000804000020ED
:1006C0005CFB00086CFB0008DCEA0020A8EA0020C4
:1006D000044A136B19B923EA0000106370471843EA
:1006E0001063704700380240044A136C19B923EABA
:1006F00000001064704718431064704700380240CF
:10070000044A536C19B923EA000050647047184337
:1007100050647047003802402DE9F04F8BB00678E6
:1007200005919DF85010069003910892002E6BD011
:100730005C1C04EB44035B00099304EB8403029309
:100740004FEAC40C01254FF03209A6F12003644A98
:100750009BB203EB830312FA83F30193BDF82020CD
:10076000BDF8143004920026019AB6FBF4F111444E
:100770001AB291F80001D943002A01F00F01B8BF65
:100780000F3205FA01FEB3F5487F4FEA22126FEAF5
:100790000E0828D2039902293AD1049F00219B46D2
:1007A00003E061451FFA88F71CD0B1FBF4F805FAA5
:1007B00008FA1AEA000F07F1010801F10101F0D06F
:1007C000B7F5167F09FB072AEBD2464F454B37F8A2
:1007D0001A704EEA0707BFB2614523F81A701FFA74
:1007E00088F7E2D15B46029A0136013396429BB20A
:1007F000BAD1069B099A13F8016F0693059B13441F
:100800001BB20593002EA0D105980BB0BDE8F08F68
:1008100091BB0F460793049910E0B1F5167F08D2FB
:10082000304B33F81BA01FFA8AFA08EA0A0A23F8A9
:100830001BA001370131674589B21BD0B7FBF4FA21
:1008400005FA0AFA1AEA000F09FB012BE5D0B1F507
:10085000167F09FB012BECD2224B33F81BA001378A
:100860004EEA0A0A1FFA8AFA0131674523F81BA0EB
:1008700089B2E3D1079BB6E704990793002710E0FC
:10088000B1F5167F08D2174B33F81BA04EEA0A0ABF
:100890001FFA8AFA23F81BA001370131674589B294
:1008A000E8D0B7FBF4FA05FA0AFA1AEA000F09FBD6
:1008B000012BE5D0B1F5167FEED20A4B33F81BA021
:1008C000039B1FFA8AFA012B14BF4AEA0E0A0AEAAE
:1008D000080A044B1FFA8AFA23F81BA0DCE700BFC2
:1008E00080FB00080400002000222DE9F04313469D
:1008F000D1F800E001274FF0030C04E00133102B86
:1009000002F1020228D007FA03F404EA0E05A54218
:10091000F4D1D0F800800E790CFA02F4E44304EA32
:100920000808C0F80080D0F8008006FA02F9013EFD
:1009300049EA0808012EC0F800800FD9C568CE79B1
:100940002C40C460C56806FA02F401332C43102B16
:10095000C46002F10202D6D1BDE8F083D0F808905D
:1009600091F805808E7904EA0909C0F80890D0F85A
:10097000089008FA02F848EA0908C0F80880D0F898
:10098000048028EA05054560D0F8048006FA03F5DE
:10099000ADB245EA08054560D0E700BF4183704726
:1009A000CB0800EB830001F0070110B48900046A52
:1009B0000F238B4024EA03030362036A5DF8044BB0
:1009C0008A40134303627047364B37481A68002148
:1009D00042F001021A6099601A6822F0847222F4CF
:1009E00080321A6058601A6882B022F480221A603D
:1009F000D960009101911A6842F480321A601A4657
:100A000003E0009BB3F5A06F09D0136803F4003333
:100A10000193009B01330093019B002BF1D0214BEC
:100A20001B6813F4003318BF01230193019B012BB2
:100A300005D01E4B4FF000629A6002B07047194B10
:100A40001B491A6C1B4842F080521A640A6842F42F
:100A500080420A609A689A609A6842F400429A60FA
:100A60009A6842F4A0529A6058601A6842F0807204
:100A70001A601A4611680B4B8901FBD50E4A40F2E9
:100A8000056111609A6822F003029A609A6842F048
:100A900002029A601A46936803F00C03082BFAD1FD
:100AA000C7E700BF003802401030002400ED00E02E
:100AB0000070004008504007003C02402DE9F04122
:100AC00082B08B6A0193CB684F698E69CD690C6ADD
:100AD0004A6AD0F800C0DFF850E098460B6848EA50
:100AE000030848EA07073E4335432C43019B0E6B3E
:100AF0000D69224313434A6B4C6813438A6B0CEA1B
:100B00000E0E134343EA0E0303604269CB6A896801
:100B100022F0070233431343436145608460C160A0
:100B200002B0BDE8F08100BF3F801CF000230360ED
:100B300043608360C360036143618361C361036297
:100B400043628362C362036343638363704700BF8E
:100B5000036819B923F001030360704743F00103F0
:100B6000036070470B060CD54369AAB143F08003BC
:100B7000802943610FD0036801F01E011943016011
:100B80007047802907D0002AF5D1036801F01E01C3
:100B900023EA01010160704723F08003802943614B
:100BA000F3D1704710B4094B094C0A4AA04294BFD4
:100BB0001846104611F0005F21F0F02121F082115B
:100BC00014BFC16081605DF8044B70470060024053
:100BD0000F640240006402402DE9F0410B88B1F837
:100BE0000280B1F804C0CA88B1F808E04F898E8944
:100BF000CC890588098A48EA030343EA0C031343B6
:100C000043EA0E033B43334343EA040205F44153F2
:100C100013439BB20380838B23F400631B041B0CE0
:100C200083830182BDE8F081038829B923F0400362
:100C30001B041B0C038070479BB243F040030380EE
:100C4000704700BF83889BB21AB923EA01018180F3
:100C50007047194381807047090901238B409BB27B
:100C60002AB9828892B222EA03038380704782887D
:100C700092B2134383807047C3785BB903781848F6
:100C80005A09203203F01F03012101FA03F340F84F
:100C900022307047134BF0B4D968457882780478D5
:100CA0000F4EC943C1F30221C1F10407FFB20F2364
:100CB000BD400B411340E9B20B4304F1604202F521
:100CC00061421B01DBB282F800330378012203F09A
:100CD0001F015B098A4046F82320F0BC704700BF23
:100CE00000E100E000ED00E0224A038890429BB260
:100CF00012D002F5806290420ED0B0F1804F0BD03E
:100D0000A2F58032904207D002F58062904203D073
:100D100002F58062904203D14A8823F070031343A6
:100D2000154A90421ED002F5806290421AD00A897C
:100D300070B423F440730F4C4E680D889BB213437C
:100D4000A0420380C662058506D00C4B984203D0B2
:100D50000123838270BC70478B7A038601238382D0
:100D600070BC704703800B884A68C2620385012308
:100D700083827047000001400010004000040140E1
:100D8000406A7047038829B923F080031B041B0CB9
:100D9000038070479BB243F080030380704700BF1D
:100DA000038829B923F001031B041B0C038070473F
:100DB0009BB243F001030380704700BFF0B5048C81
:100DC000B1F802C08B890F881B4E24F00104240463
:100DD000240C0484058CB0F804E0048B25F0020593
:100DE00024F073022D042D0C4CEA030312042B4350
:100DF000120CB0429BB21FFA8EF442EA070208D0EE
:100E00000E4DA84205D08968848002834163038423
:100E1000F0BDCE89B1F812E00D8A8F8823F0080367
:100E200024F4407433434EEA050523F004032C43B5
:100E30003B43A4B2E7E700BF0000014000040140CB
:100E4000F0B5058CB1F80CC0B1F802E00C881E4F6B
:100E500025F480752D042D0C0584028C8688858BE5
:100E600022F400731B0425F073021B0C43EA0C23CD
:100E7000120443EA0E23120CB8429BB2B5B244EA04
:100E8000020408D0114A904205D08A688580848384
:100E9000C2630384F0BD23F40062CB89B1F810E093
:100EA0008F884E8A92B242EA032225F440554FF6CB
:100EB000FF33134045EA0E1543EA072345EA0615BA
:100EC0009BB2ADB2E1E700BF000001400004014069
:100ED000416370478163704701647047038B23F05F
:100EE00008031B041B0C194301837047838B23F0F9
:100EF00008031B041B0C19438183704710B4048C36
:100F00000123A4B28B4024EA03030384038C5DF81D
:100F1000044B8A4013439BB203847047B0F84430BB
:100F200021B9C3F30E03A0F8443070476FEA43437E
:100F30006FEA53439BB2A0F84430704783899BB259
:100F40001AB923EA010181817047194381817047F1
:100F5000038A828911EA030092B203D0114214BFBE
:100F600001200020704700BFC94389B20182704749
:100F7000038923F070031B041B0C19430181704784
:100F8000838823F070031B041B0C838083889BB22F
:100F900019438180704700BF038923F007031B04B6
:100FA0001B0C038103899BB219430181704700BF69
:100FB000038923F080031B041B0C038103899BB26C
:100FC00019430181704700BF844641EA000313F0D2
:100FD00003036DD1403A41D351F8043B40F8043B40
:100FE00051F8043B40F8043B51F8043B40F8043B03
:100FF00051F8043B40F8043B51F8043B40F8043BF3
:1010000051F8043B40F8043B51F8043B40F8043BE2
:1010100051F8043B40F8043B51F8043B40F8043BD2
:1010200051F8043B40F8043B51F8043B40F8043BC2
:1010300051F8043B40F8043B51F8043B40F8043BB2
:1010400051F8043B40F8043B51F8043B40F8043BA2
:1010500051F8043B40F8043B403ABDD2303211D342
:1010600051F8043B40F8043B51F8043B40F8043B82
:1010700051F8043B40F8043B51F8043B40F8043B72
:10108000103AEDD20C3205D351F8043B40F8043B42
:10109000043AF9D2043208D0D2071CBF11F8013B40
:1010A00000F8013B01D30B8803806046704700BF06
:1010B000082A13D38B078DD010F003038AD0C3F115
:1010C0000403D21ADB071CBF11F8013B00F8013BF7
:1010D00080D331F8023B20F8023B7BE7043AD9D3B6
:1010E000013A11F8013B00F8013BF9D20B7803708B
:1010F0004B7843708B78837060467047892010026C
:1011000001100000000000000000000000000000CE
:10111000000020010000009000000000000000001E
:1011200000000000000000000000000000000000BF
:1011300048000000000000000000480002000040DD
:10114000000000000000090009000000000000008D
:101150000000000000000400048000800000000087
:10116000240A4599544AFFFFFFFFFFFFFFFFFFFFDF
:10117000FFFFFFFFFFFF9FFCFEFFFF4FFFFFFFFF93
:10118000FFFFFFFFFFFFFFFFFFFFFFFFFFFFFFFF6F
:10119000FFFFFFFF27FFFFFFFFFFFFFFFFFF27FF0F
:1011A000F9FFFF3FFFFFFFFFFFFFE4FFE4FFFFFF4B
:1011B000FFFFFFFFFFFFFFFFFFFFF2FFF27FFF7F59
:1011C000FFFFFFFF92A41844098100000000000007
:1011D000000000000000000000004003010000A02B
:1011E00000000000000000000000000000000000FF
:1011F0000000000000000000D0000000000000001F
:101200000000D000060000800000000000001A006E
:101210001A000000000000000000000000000D00A7
:101220000D0000000000000024114225422A5555FF
:101230005555555555555555555555555555AA5806
:10124000ACAA5555555555555555555555555555A2
:101250005555555555555555555555552B56555567
:101260005555555555552A56B1AAAA6AAAAAAAAAE9
:10127000AAAAC5AAC56A555555555555555555552A
:101280005555625562B5AAAAAAAAAAAA8944A95222
:101290002851AA12AA8AAAAAAA8A2AAAAAA8AAAAE3
:1012A000AA8A55864355AA2AAAA2AAA2AAA2AAA293
:1012B0008AAAAAAAA82AA2AAAAAAA2AAA8AAAAAA42
:1012C00094A12AAAAAA8AAAAAA2A95A10C5555159A
:1012D00051554555555532543294AAAAA2AAA8AAE6
:1012E000AAAAAAA2AA8A19AA194A5555155555514A
:1012F000522814088504514C047151101471C545CD
:101300001117111111712871B88814914459145D85
:101310004459515C7111454417C55C1414415C4437
:1013200017454410425CC5451017454144C4485C0C
:10133000E39288A82EA2B8280882888B894B14458E
:101340005C4417514414515C0471C445C42588A2FF
:10135000CAA2222E2002A1A630500C83F30C0CCF7F
:10136000C30C3030CCC0CCAACA0C860C0555A24C9C
:101370002A86C28033860C030CCC3033C03003C3C2
:10138000C33C0333C03032CF3C8330B0CFC0303C9D
:101390002A33A6821848664581190686E679675081
:1013A0006490C3300333C00C33C30C03F30C3328F5
:1013B00032C86618311499810A490C11862AE3282B
:1013C00008A2E32038A28E8E233A234435A271A3CB
:1013D000AAA255A3516939568851E2E8A3238E8801
:1013E0003A8EE8383882E8883A8E8D2083688E0EEF
:1013F000203A8E83D188515545B7112A74C4D171D2
:10140000110410AD1B6D388EE8883AE28838E3E8A5
:1014100008A288D68D3611C78CCA4674A12461688B
:10142000504018825555185585556161588558B3F7
:1014300088550C5854592A588C1484A955AC151643
:1014400054546155856115868555155585616255DC
:10145000681551A1558561542C562CAAAA00AAD50D
:101460000B2B2A0CACAAAD42C0024551155585156F
:1014700055451816565556216081AA286325B10A8C
:101480000A4016058A2AA628AAAA45AA6A28141676
:10149000856A860C55A8A385A204918563626B12A8
:1014A000AA12AA4122A91AAA6814AA516AA8AAAA29
:1014B0006A1419AA15AAA45AAA5214A982A182517F
:1014C00054DD4908D05055A3435542352EB49AAA4D
:1014D000A4A452A8AAAA46A1A1AAA19A175A5553F0
:1014E00018520CA5801240901195114545109A1183
:1014F00091966BD15A1171A2A215585A15EB4A5AFE
:10150000989510C945C551BCDC16A54516AB44AA33
:1015100012474544116BA411AA411A2414ADAB46DD
:101520006D1A6D0C232226652D2D885434A2B588A2
:10153000514B44441353A9564414B15A1A115A44F6
:10154000A8A58888A5A9D35822402A2544424C1032
:10155000A8AB65AA2C41040824CC0C5959A28624B6
:10156000AA10B4244648CE34303A8C0203C048282E
:10157000C150B314C9302833CA844BAA453AC59325
:10158000C340443112A512E39849D99A42C2662950
:10159000491508668A90B333E80C1681AAA20C8517
:1015A000A4AA84B2524855754A142825480A004016
:1015B0002A95238A15441045C3BAAA429323A32629
:1015C0000659719249AD0393B1A6218B8E8162D5E4
:1015D000683B36D53A8D08E3368AD5883432B04434
:1015E00030852A483836328AC848C91846340444F7
:1015F000352911C6A6A8D611656D088815E2E05AEE
:101600001155A3585244524D8DA6220A31CB469211
:101610000290880891204851E232CE382804019087
:1016200068545891E8840C692442B8680C195460D5
:10163000616C15299684C1228462D5148155225685
:101640008BCC0D33CE5851B585894D55363632C6C3
:10165000B18A6AB38896AC29514621AC1802D65596
:101660004A191724CC2858A58DB32D2262199CA5A0
:10167000CA20B165500122824486852419CC218676
:1016800056D3A80415A9854C135AD316D2294686D9
:10169000E3C4AB1B1A13A88421691C596B14264A96
:1016A0005CA899A15023A2CC21468C0A6A6490A818
:1016B00081C14D310C559108664943948C315A4390
:1016C000A6B521A4A146489333C686126208929912
:1016D00019C44350255D0C18025404200A10288AAE
:1016E00046235451A02C01A0CA166AA24C2528C03A
:1016F0002DD49131183210C4C4A8477BDA16438622
:1017000010AB90A4A245441AAA985922943163E4DC
:10171000141966465C1AA08AD2A24CD619B4384B6A
:1017200063CC853451485A135CA8A668882969ACF3
:1017300019B54864A433A82E9882D2C68800914A6D
:1017400020450211A898ABAA1A41A40A24001155F9
:10175000B1924637822A6CCC468DAB322B46300094
:1017600004A0B851CA50565B49AAABC42546469955
:101770006A8C1813A3C69131A3E45634251893211B
:10178000A20386A0182368C98C9684EC03535116D3
:1017900065941243A44AA7124B48558146692531E6
:1017A000214A24104910A84453461015C4B602809B
:1017B0005357AC2A4668B18874850313B122448D0F
:1017C00050B18DAD6B5B06AC358D49803411503313
:1017D000923131461563C66858314C8C480B09CBA1
:1017E00058C7649C4CB8515DC698162662616B015F
:1017F000E88C2CC11A63C9384B2150AD30952A7A38
:1018000091149A8C84200145044212102C91CDA889
:1018100020085025A880438518170C650A72B8C89F
:101820004CD83262AB0A62529044D1428862245B47
:101830008ACC2B8C658C8C31C2182915458C32636F
:1018400032B0E420853012433345AA02314661911B
:10185000151A10761652C33AC5183686B0AC2D420A
:10186000CB6A45056C4B2163298A28002009840234
:10187000822A224655D30808950AB470E3A0A3181B
:10188000D109463522074D9544B419894D322A3580
:101890006614D3A465338451185363CC35A654CA57
:1018A0002A6385188D4D1A4D6A8DADA8882A15E9D1
:1018B0008C319A6AA9C54D094929288430C68151BD
:1018C0000D1342392404A8A803B0CC1880508528F1
:1018D00095201154754554B1802C2A424AA0090E16
:1018E0000C5658C72CD49184D5709028324BC656CC
:1018F0003289958811AB2812108872A6C6A81823C1
:1019000088498B21D1185AC5622245B212624255CC
:101910005295C214638C44144430B2E2A496566BC0
:101920008E315AACA2C8A98459B35656B44B33C6AB
:101930002D045084008442000810AB0A224180101C
:10194000A108D6D1B289A63083256A32288A67C613
:101950008D20312089562857AC5095EDAF550D1983
:101960003146C5986524605C2CA6A12A1895B085DF
:101970004999390AAD4839AA186393C3BA8E051D2F
:101980005B40A110618AA4425936566A86482121DB
:101990004924883180520A52A45208A9A54210B5A0
:1019A00008B429841C4220244964114A749214CD3D
:1019B00087559029629D8CDB64A1C6A0428D4A00A8
:1019C000404AA2A48A292A469ADA1D8383514C549C
:1019D000C6680E58B44684F140A64645C618683815
:1019E0000561D84080BB1AAD1A55533526414115C3
:1019F0005116D65A2499658C2A002001128821029A
:101A00001A08CD484109442103095B5B2519AA2521
:101A10000A69CB2270224D94184262049A1C291A3A
:101A2000356221B73A255953549454A94404A274F9
:101A3000688C32933196E1864A316A0A365191B206
:101A400031461585D21A26B65D04C442C5A88888D9
:101A5000919A3A62AAE10984DA461863902A8AA820
:101A6000482584A84124202610A2120854208480EE
:101A700094A649D4B11620580AD9224BA6B515E927
:101A800045C252C5C819DE4885D88428A24AA35445
:101A9000936B5409166385488C411A69258C15A5EA
:101AA000892A6A088CB1CA6A29C4910922D33334BD
:101AB000302656564C658495491A646B05B0C61895
:101AC00045402004029050010A815591A5088040AC
:101AD0000285696D525126230A415D875506D4500F
:101AE0005148A8163035893216C400926A056A96A4
:101AF0001DA5188B68908BD6C9185AA5633445125A
:101B00005053A252549594D7624C2194543364D4C8
:101B100095288C8A8E91A1A1B290534826459A109F
:101B2000720B31C610158A52A84202542152A86A7B
:101B300008222A0A515016124D8CD158E4BA82500C
:101B4000A9712B2A8C2646A18E8A748CE12A6B4DB2
:101B500011721241C058C550154D602024A6A15ADB
:101B6000988AA8C98EA859A9A348432095225C4306
:101B70008A881A2348956265516C5A1C094EACA696
:101B800051B245AD89D48C31424021804128540363
:101B900088080215A29000A00206A0A922632A8646
:101BA0001B0469AD440C88956391395461510B63F2
:101BB000145294B2AC89C9BA36862AAACA321D5BBD
:101BC00053514C01466556346146841418A6389D1D
:101BD0002ACD83386556C558A66A1992AA0205C34C
:101BE000E42111592C093042A422628C2812942A33
:101BF000144501502542D0480002950A28515B4601
:101C0000D418946940EB1642ABA26548186A828BDF
:101C10001AACA018CA894948425636048951511550
:101C20002188C284A82633DC311A218B9A316ACAF2
:101C3000C6518642D122748592212A865904C6292A
:101C400014B5E8281BD4C60293D68E35559C15636F
:101C5000454949502110A80A9014021255A8402065
:101C6000828204312AC64294AD10A93510559AA635
:101C7000A5156C30A5435DA5357426272D2141D3CC
:101C8000642C8ECA5C57296A159188238CC19A608E
:101C9000448C1525312A51A90C58096A289A516992
:101CA000047331D4C3481656402B38EC4821618860
:101CB0002243AA1480142485844405A04542A844E4
:101CC000000511041028EA8A91313D23524A4488C4
:101CD000CDA841514AA8138D5034824A820AD1902E
:101CE000D09C9C2C19C3603183A05611CA6C669499
:101CF000632C451BB252A2D28C94AA5663A76611DC
:101D0000D7648A12EA888C0A3827A191AD904313D0
:101D1000B39C9456D9A851A9164192101012900A5A
:101D2000A0110210A99044418402112C4C8A82D83F
:101D300025B52A673216AC2CB446C8628E8969B4C0
:101D400059A52A6A26424292A6341B8A681DA1CE52
:101D5000211211299852A8C40DA55529634B55206D
:101D6000981091CE000B74CC125663E586505A4CF5
:101D7000524D984808422BA106568C4441284944AC
:101D80004A4145A0156CA84A1226011050554A0335
:101D900023555805924AD41089C15342033125195D
:101DA00061641603A452941599B5B54950894465E8
:101DB00015A214215CC5AAC646A54632A0182894CF
:101DC00018A0089B46CA2C217AB08B324921981062
:101DD00069AA85A2292246A6D6B5D016682163BA7B
:101DE000104212102028109548011500804010055F
:101DF0000200B4A8D4A8476A6921236A563A08ADFC
:101E0000D8CC5AC6141BA1D84B2843A8420808A412
:101E10008B64A918AA49AA54833A5531311AB98C4E
:101E200056C7964BA55DE644B135C354054B2049D2
:101E3000B4DA46AE1455685544D9B15121080BE8BF
:101E4000939A1805A51048498A856A4A225240A9E2
:101E50005414448848954B022946309116CC9895E5
:101E6000A184E61225228531ABA05A253097B846C9
:101E7000ACD6E75A541A54C645B455AA6881888C22
:101E80008CC10463A93061A04A0211AA0A8828AA59
:101E9000D2A4DDA64B049141A382162AAA060CAA5D
:101EA0009CD6D4064844C6D24004240021200121F7
:101EB00054291502004A0021A10020458631CA4E4E
:101EC000A03346481C6B19C84A95508C504D848AE3
:101ED0008D60063153211005A9C58B31280B2015C3
:101EE000166C6662632CD218148A165D34E9AC5104
:101EF000D56555152D120210206B6C34585D61911B
:101F00005570E314422122B1B6B3312825519252C3
:101F1000948AAA0489444030501128841454CD1066
:101F2000718C15205B88A926C2104427B46A2E63E1
:101F30008DB25B716215E9CC285A6AEA1630608C62
:101F4000D6A097C26113111598522DC6C355C80269
:101F5000C314430C28122AA2C0CC69ABCD90838A4B
:101F60008520964A088B18C2B59C9D4C01084A975B
:101F70000804000440401492201212850284821248
:101F8000020132820A636457845624D135CAB350A1
:101F90000311C1186208200C19AA12228685151196
:101FA000C04D1D63215D68399AC8AAAA46A5423171
:101FB00038A826E918CB34E345A9C4552E339454E8
:101FC000324E34656A964954E634463D0A4320232E
:101FD000DCD69560A110AAA01212A124945444202A
:101FE0005051104050A84828D59892905AA19A2C48
:101FF0004A3548AAD8CC34C619D79D63C451A9958F
:102000007168C2AC3BA2C218948212844536555105
:10201000311AA88A864651166630C918AA542A88E9
:1020200091884B898921C9181169A4231189B1822A
:10203000B1A8CD982321641614452014498948017C
:10204000420A2195022484080502270128462D4EC4
:1020500021164543A14A961526228B31C620429867
:102060002A8C46688C163442449934C64A69CD6B32
:102070002881888C8CC1975451312CA1918B264694
:10208000524A91666466306664D426C6CE021A98B7
:10209000AC660C694C562265485A12C941008A0048
:1020A000104225AA286194405089289240945054A7
:1020B0008631C0A19AE9B2A81C9161C29155608C89
:1020C000309AAC465563B11623A14A2D29468B316F
:1020D00035152010D65A6662622C50AAAA8CC25AB4
:1020E0004A6491B129254C191B914A111B2B993136
:1020F00021BCC5664210D29422A1598AB685AD3260
:102100000A112055A42892048214022A00500201C8
:1021100011010D00718C365444040896C24C1639D6
:102120004CA81E634B452391A2140CA1D85AA5D2EA
:10213000C4B1608C82A456CD21A4111595528D1185
:1021400015532D0434196A4CA6CAB2C4C04AA5AAB4
:10215000C044448C544332112DAB254AAD1A26316C
:102160000158408D20440920024548912948558155
:1021700025055120045022150A63892AB2B2D7617D
:1021800035A2C984B316C11894B2986C18A9D29418
:10219000068448083A0C1D635853A932562BAAAA44
:1021A00028A562CCA24852EB83C61423103105291E
:1021B0002DB419552D32A962AB2849ACD05458A57D
:1021C00092C4918EDC26B6608200A4885490A52427
:1021D000840220548052040A41059540D518648534
:1021E0000D4D201A8855246A08C134C6690D65034F
:1021F000C644256A696B267385D2C218A72814893C
:1022000089905551C7181923582688105831C3C8CA
:10221000CB8AD856520BC48852CD5615109594438C
:10222000268A855248324C612391091610551200B6
:102230000845488A29A80A220188104014A80814D1
:1022400024C61B69D2229DC466285A95D23A8A3187
:1022500006D00AB4313B9A959210D98C522535A6F6
:102260001096C354644D888C30C5C65887D1734DC1
:10227000A68C383534542690A4E03266892021AAF1
:10228000CD4A6A3899616A28A78DA314884CD4A9CD
:1022900044000552621024218012A0001022420442
:1022A0008002A6429331C0142898422B9196842232
:1022B0002D84554AB127B1498C80614049AD222215
:1022C000A9988851CA6138A51AA266628D323086F3
:1022D000682C0CA21162868A8AA3514B1B1B4D11DC
:1022E00072969A5122A40585421C1197506058EAB3
:1022F00075A323442114A0000845928A2A850A94D4
:102300004449002929900110688C2DCA4767A950BB
:102310002C416BD9426BA2944C904C26236D0C3708
:1023200034424CA91465658C351486124559111533
:10233000628C4B691283A159CC15516161188AB422
:10234000C044A0AA8C69448C5953B26AADC2CC4037
:10235000AA1606150A545833484105244510482545
:1023600000405141011088400045548516535225C4
:10237000B010548DC3BA1004B4101863A36AA358E4
:10238000D412B3888A352395CA121A6342AB51E935
:10239000B206ACAA19639412CD74562633A8AC1CAD
:1023A0001AA575022DB24E542384AB6286284811BB
:1023B000503533BA15A9E942A12986C8020810810F
:1023C00090442510A414041410A522082410012000
:1023D000C14889520DCA2A623404AD6B0AADC79850
:1023E0001815148329A448656288D86425CCC518BB
:1023F0009850AA1409E94351C618494C220AA990D9
:10240000884643C2A44A08D952092143D8395015F5
:102410006995976CA6488805A25412B85C9669160F
:10242000882045142A2040C50900524145404042B9
:10243000808A448A3A2666A9D235851989D3429082
:10244000D1423046A6C8A96C465B251A995625127A
:10245000522330A6678D144AB414388C31C6A6A313
:10246000D5A4144B56A9343593B4A62689D5DC34AB
:1024700005862BAA144A608219A665D255234C07FB
:1024800083A0926121451000800A12084052092859
:1024900080121011120011008459108A298870A42A
:1024A0006428B54E2C348D9151275692A9809AA15B
:1024B00046A18AADA9588E510862CBA54A4A8563C8
:1024C0008C3151582852A2B4A1148A8A6C025151FD
:1024D0006624038A6A51445162A51A6DC4511A2DAB
:1024E0008894A2D0585B2C9A040001495500A4623C
:1024F0000A08A48214A00580402544255204AF6533
:1025000094660F4B1B55082143CB626C8C502029DD
:10251000146D644C315A71401485618C75193050BA
:1025200025A56A18634C2A05862D590A1ACB5151E4
:1025300081B5AA8C1993686592ACB28A9550C51280
:10254000322AC5C06652552D2684C34451555420A5
:1025500000A0010840411210800A401508001080B8
:10256000AD9240184A11A0B0C08AD6DAB42019033F
:10257000622A9BC6C91213338A058C36CA6A1A634B
:1025800082A68A2ED25211C5182395DA718284E16F
:10259000C430ACAC36481452C4689612492209556E
:1025A0004A2E2AC88C94302E198D2892916928932E
:1025B00004200004AA0A5421292AA94A22241240EC
:1025C00022214212120DB5C6A5AC5A0B2E61210470
:1025D000095DC6B81595443136A4A8C855D8234915
:1025E0002514C4185990558124A8CE2AC698482588
:1025F0000C795A1C338A4342C926C325331649AC89
:10260000B695D528A4815127634B8D91C462874923
:102610006416966C4195125100400094848044A544
:102620000480481508880800C8800A31504325D422
:10263000511C5A6BD6823146A862A98C405B462554
:10264000A825D89452A332C6246BA8745A1721D453
:1026500031669590A30425438C55343524993898D8
:1026600088C1A4420168244652748AD018A06264CA
:10267000321870B29AA06182344A40020210890076
:102680005214100891242440824022493326D14A12
:102690002E349225A6C3849021748C11471556625E
:1026A0009B80315A4692056394588D299B14460BA2
:1026B00081C0D4228C11624D54AB90A851A8898A54
:1026C00099628666553A5339DC1593B12D0B742DFA
:1026D000A55D191B8D470D0945561A358AA529A8F0
:1026E000A802504A09422A650091822A21940800D2
:1026F0008C012C9481C94C9211346B4B5A0B63ECB6
:10270000B0A82015646D4C8531696A944B466254BB
:1027100040C931D06C3D2B9562AC19B229504F5550
:10272000A6465661460C5111AA84288622C2688C9E
:1027300080D00B824A02C6C060B062D5A889C4C8E6
:1027400065500055014805206211811255021001A3
:10275000080142526290424B7426B268AC89103430
:1027600084D098020D469BAA0A12A2508C869149E9
:10277000B03118A3AE268C2D138290281543C609BC
:10278000C62DA02A1931A11CB172ACA4456B96517B
:102790004C391663772D603934E9312D160D9424A8
:1027A00026643226922ECA8894004001894A5448F1
:1027B00000284D98001410001504B5B00A5109976F
:1027C0004364AD89532A46B5D2B14451B1C94DAE27
:1027D00062312EB60D8CC71851506342A4294DC6E4
:1027E000A83831E429425584E48C1CC20C89125B60
:1027F000309041ACA386C11808429AC6C3144C520B
:10280000A9D22B9391198D99AC80205700AA12ACB4
:10281000542422A52A81824445418524A8200A0BFC
:1028200055AAD640341B4266A845314A240CAA8CCE
:102830004A32B24115CAC100E26230C60A9718B5E1
:102840005AD4A23156858C1A94B4AA6A1262C3353E
:10285000D224A5808D2DBA42185136C6A6B5451092
:10286000184B22894425D0686AA66044416A8820B2
:102870002901490102928810002A282200A800009C
:10288000064AB1D4A2152136C9A0B51055B28C9113
:102890005BA35162A58C082CA81534B618158A3193
:1028A000E548C608812A598C416A6245634B11117B
:1028B0004D15288825DB586D62C2042DC5AC8931C1
:1028C0005108326B65B0D566AA980D96145196AA38
:1028D0002A11029A408804485969524A9580421543
:1028E00052012909A9004A2215C89489164D08AB3E
:1028F0000A09634C80580C151263D39247688B49C0
:1029000047AA554A18B231A66C850663361115B22E
:102910001420AACCA0AA56675A0045121935EB908C
:102920002A42648CAAD6CD948A0B28181546624197
:10293000C38C2925944E644505225924840404A19E
:10294000402A90A000A400A0042A249DE8266B64DD
:102950006032D69461D518335D86E3AAA9182C5548
:10296000B0865024B045A894450D8C59136AE918D7
:10297000894EAA09CADD45335751A110816D32A98C
:10298000C6881066542D1A631421204931D446A3F9
:10299000C8B1943A3862C49853011051A048868354
:1029A0006A92911414012B4A88124002A180D240ED
:1029B00006D11093968921629C24A688A2691848A2
:1029C00054C6418A0D31AD990A304663AAE2638448
:1029D000A81114C664A144D424023288208A1AABF8
:1029E0006C9289463156AB19A352C118C394969480
:1029F000CA22B14C270C2B8585192B4548A4AB2C3A
:102A00001400703811694442422A408502000A08C5
:102A10000A102DB6692ACD2C49545A1523935165B5
:102A20004914C6268B31B661D2CA4266D5CE3194DE
:102A30005418146B46CCA3311A54B3259B698C658A
:102A40005D55C44813A954318CA144C414892CC6C3
:102A5000386B296324590AB250E3D0686AA490AA5B
:102A6000221148834AAB05C5AA0410948990151019
:102A7000A84A80A040028009149522C2264B84AA4D
:102A800094688C1A34A331D1608C081C251434113D
:102A900024218A49A346AA10B132588CA12B08924E
:102AA0006094631A822832264846AA8C521A32331E
:102AB000AA7453318510D2149B86D409AA180D9696
:102AC000124B4D5294442548A154AA2A44AB4221AA
:102AD000244240450420240011A47652CA48993566
:102AE000D1306B44491553A48A588C2C1D63D3A252
:102AF00058638BA49354552618B151CB0A8585622F
:102B00004C90B5690D4B18A169C68DD1A7314562AE
:102B1000A5C48D88450AA48A5ACD0CAA406823A46E
:102B200015456241C924B209411290225A0210543B
:102B30002A50088A0A29AA904189004A4401092D8D
:102B400031A646882C8A10B3A6CAA852658563426E
:102B5000C2182C558598B05A688BA8D8C60C8C34EE
:102B6000D5586A15B34E4A14B230C64C9431622C13
:102B7000508C30151833625530A55254452262519D
:102B8000AD939C5ACAAA953A34D204F404404584C1
:102B900085104B21912D91209004102A14549100FE
:102BA0000820A4808C51A9658255CD08512416298E
:102BB000126A94AD34C6418A6A464D821664460351
:102BC00031E3628224A514AA04A121CB458D3132C0
:102BD0004A8C1983AB628E6AA68C19AACE520DABB1
:102BE0003059998A52484245215428858A29DB0A5E
:102BF000110410115044548A6A8204494AA8C581BC
:102C0000A00204A2220A5B17632C541A75A832D6BC
:102C10002C53C194A9112A108B31B66191312259DC
:102C2000C119316C8C181559934AA351B254CC2058
:102C300058624CC52563A474141561915152A421A6
:102C40001128E2108E8646650935A9325CA3C66854
:102C5000659620A580204A440A0121550475201458
:102C6000255310144A5041089040804018830AC1EF
:102C70008846892183A83A4B4ACED1CD608C091C65
:102C80004C8A99263A448A916246AAA66824588CAE
:102C90004D2B335D2619A31ACA184B09C2A8144C30
:102CA0008CA94B9A649718CA61713112E68A5488CC
:102CB0008218299610414D522408049221509620E2
:102CC000A9088A4088004543A12A104005046D22C6
:102CD000C574612E2731645A781584A024210C22F2
:102CE0001D53D4A22355469184AA555615B1514976
:102CF000165305632290888291C6186131C630A6AA
:102D00003D46ABA3631430459960A7351A0C8CA9D6
:102D100019620A5775C69421CFBA32290100A10061
:102D20008A2449961055118A2252121008008512E1
:102D3000481012092A0A9E51D08A1A8506CA6B5D6C
:102D4000D3546259C2A82255D8A8B1645355A88853
:102D5000AA0A8A24C1A8EA18984D66744A31C68C1A
:102D60008C318D598039441818A38DB2461650887D
:102D7000A5A363544419E5A00831639C2004C9D479
:102D800090221408400894A945A2A4204809408A2A
:102D9000559510000242558051A541A42A54C558AA
:102DA000D12110022CAA958634469D8806464C9A5D
:102DB000A822266345D5555A3A1612C667A2110BAA
:102DC000B58C3132638C62045682B2C6C658520941
:102DD000B0A98D664858988AAAC6181AA78A1443BB
:102DE0005AAB240A2008004212A26324921402095A
:102DF00010A40A0120200A55480808258E52341BC9
:102E000095A332A62A5C4AE9824529718B31426535
:102E1000693123455558911C3022A88484C1493119
:102E20001055AAD008528CC5186319E9A96C09314C
:102E3000318525D50B446211B6464665513145C5ED
:102E40005055CAA885505A650440A200000918913F
:102E5000204850A24200A1AA8544400001255648BE
:102E600060AA8AC0481849115483B5167558940A47
:102E7000608AA91A928A98320A8764A24E99466B90
:102E8000533AB64ACA28542DD6A55218C698C61623
:102E90005212B44C8C5A9824D4B219AA013131126E
:102EA0002C8CB232AAA83156728D85928184082466
:102EB0004880C54E8A22850810554A00501211A23A
:102EC000A40001001B09652DA6C6A4CA8B58094998
:102ED000082563D41D5554A14D544689E5501A491F
:102EE000A1663190AC840195354623422118A56531
:102EF000314631A08D694AA362A46592290DA65579
:102F0000DA8C8CA982634C8C15468C090D62522890
:102F10001012000002252A00219508400508904A59
:102F20000188840800894425A4E4185251319B3457
:102F30006025D4A4D6921823C2A22A4CB0A3A954C7
:102F400010AAC5B61A118C2D416BDC684AA994B53C
:102F500096A65A928C318C5B608425189512926DDE
:102F600046A25188256263546D18A362C23163E49E
:102F70006019A8974C019240101090924820A00A26
:102F800050212201A420205052221290491BA5A5B5
:102F90002C4A408A1D9A2352214CC6982918853301
:102FA000061854A5AE552A00C4AC63C236102306D9
:102FB000A1126A0851510149638C6304163BC8C5CC
:102FC00048E54C80B0558C664815188B12C518150D
:102FD0003C8C141996A645600208000842824A24D7
:102FE000858A0A20058408280A8A4A02204040056A
:102FF000B6C052184395AD31A241582D94A3316605
:1030000056A77248D9A62312410851DB324218351F
:1030100089CD48B11ACD11A54C2AEC36186318E9B0
:10302000A980362AB618A3360B286311B6AAA66063
:10303000C92AC5A88252AAC629513015284120A202
:10304000002024012050408990504241A1000150AD
:1030500049110A20002E8CC5A862528C49AC868288
:103060006B588C11894808A5245198EDB4D58A2451
:103070008D35C6886422B64AC430AA5A339113806B
:10308000C618C616526D8154014618C9D4C618AA6E
:103090000149511D34542A4769A55131D28C81AA66
:1030A000041004019404518894221100450A2C1440
:1030B00000A8A80A0084200ADB9163325518246313
:1030C00034536975100553CA6435D71A922A4600DD
:1030D0000B22755260483165195501353346452537
:1030E000886E485B31C629A08D125AA3DAB1C52477
:1030F0002329A555DA242AC242A351B0141A8C8C74
:103100000D5250514244A0AA004004010189842A72
:1031100028419222AA020040251082002404188926
:103120002AC79B98CA081288CDEAA83419C220C4BD
:1031300065C4A976D09C088D96A68A9AC6A8DA8816
:103140004C99B2D05601B2A48C31545B60E4A418FF
:10315000248A2A9398944A8824DA94359D988C0D71
:10316000AAA1626260A9A28C00100040110812207E
:1031700054242940022A498800108A08104508551D
:1031800052554555C430404525E64C27221116833B
:1031900044195A33193324092D43A662294955414C
:1031A00031162466A242090EA1B48D12638C9204DA
:1031B000161B12C5CB54546C2663B4669305624843
:1031C000424653D2454C15959646416350454915A4
:1031D0008000480801911209A494245245442022F9
:1031E000488021008C01AAA4338AAE2A9019A3D06A
:1031F00099ACC158AB668548C48C9AD442A8511981
:10320000C4B4A8AC8CA1531119BDB4611A4A60CCE6
:1032100018634DEAA940AD2A30A2A3019118031109
:103220004C7015A5A83128252833AA2A2931201445
:103230000A300080082002222844A4245141902012
:10324000102108800212842263142413885541D46B
:103250006E44582A44433AA6509168952B51452311
:10326000B5552AA42A034552635488AAC6004A9435
:10327000C4A51733C618A21152AD40548B1D186E49
:103280006AC5D8AAA28DAA1A578C9558D6C851D10A
:10329000D28C81A90009902A2102A1088210028003
:1032A000049405880208820809445008184193E8EC
:1032B00055A8B62201AB85953A3484512D4C166A37
:1032C00050A6B298082A944B95D8AA25184B765444
:1032D00031D6252B3218A88831C659AC8D5236A369
:1032E00064C0C690152A2554552251C510534A85ED
:1032F00021268C0C0D524846482401801028084095
:10330000104A08219248204248A52852A00009806E
:1033100046086815A4460995B4505A4285896B0C35
:103320008223A1058D110926E68463B062261198D7
:10333000A52401238C2992D08DC552658C3104437C
:103340006028C9189236314BC8514A8B28D98C3025
:10335000CAA8A4729A91626260A901B10000A00497
:10336000A0004102412021084822891024100100B8
:103370000852802A9122154A1331E4484A2B25B974
:10338000525610E375D85AB052EAB4C9116A140BF8
:103390001989CE454AD9DA986294680D62328D1A3D
:1033A000638CEB28168724C64D898A3026ACB4601E
:1033B0008606628D3546530C454C15959616920A35
:1033C000110904001410141004094A4225901444F1
:1033D00041458448220824002A80CAA1E88A19B6F7
:1033E00095845006A8A0CA180825844E24154A249E
:1033F000AC91CAD4C47220AAA504244615631762EE
:10340000194960C4186310D6A9709231A26454CED1
:103410005143031D716815528A3128A3A8B2A82A06
:1034200069C000D500001020424240811080041085
:10343000902A410914282802908200A40214215CD9
:103440001554460162728ED1175B3546D68A6BA140
:10345000DB482453434C31222A0C5B51986A93B1C8
:10346000AA18C09944A61633A694AD21520D6D8CAE
:10347000981AA321AA34D8C20C93AAA9618C955892
:10348000250547C5143BA128202020041400042052
:10349000492492044A8008A0420202A90520291169
:1034A00048015C834AA3B1B6140D612CA00488B115
:1034B0002171101A00A6CBA834938A59D5A2840E84
:1034C0004692640C51C53B44AA19A9885129429AD5
:1034D0004CA2026347C41C9414892634D34C511265
:1034E0001C634A8594B2B030C34404450204010110
:1034F0000108120904012540812A521220A9400026
:10350000A00A000802488268A4580A49CA501A93BF
:103510005AEA664C5A8AADC56D513015C968658640
:1035200022596AE0314919D38A2A842A55C454554C
:103530002CC635452259B498302BC16AC364518BCF
:1035400028928CACC214A46A534A0B8E382A41AA22
:103550000021042054020000A0A810112884044473
:103560000900152D0A408842212175155386D5245E
:1035700031A6C4482511912284254228922A8DCA59
:10358000260612519484111B8CB6C62855515255EB
:10359000083322AA83318828D9864A458DD036053A
:1035A000381A8C504669634235AA53144829D461AD
:1035B00085D108114A082088042054A411024E0421
:1035C0008450508142A5A040A12A21100810082A49
:1035D000A85124DA8C192BB6924E2AD552D4B5D6DE
:1035E0002495622491B1CC2AAA6ACAC463013146E7
:1035F000228CAC88E6889511788C26D6046891AA2E
:10360000622D89B286A563ADB10698B58951A862CD
:1036100035C622146A0C82CC004508419000021085
:1036200024042140520A0A1410180908080004450D
:103630000205A701152A920163E250014CA1D4288A
:103640002D130821DB4819536A4C2394511234324C
:1036500014DC8CB199531365115668CA0663412175
:103660006A136C921982544C695014420CB146088A
:10367000648C16958A3159AB12D31033110000288F
:103680000A4429888050940808E5A4A08042A442F6
:10369000454550105080508ACAD4696C18098DBABB
:1036A000A2540A8790C8D69A00A6C4A894925863D8
:1036B0008CC98B8C6A23630C6628C81AAAA10735AB
:1036C000D118149A92AC0349A675A322920EA9357B
:1036D000D24CB1D61A63C148654C8444C92800480D
:1036E000822A50000001042112044A42A518010553
:1036F00025100104121002440428AA20210B16935D
:10370000C6747244552A6170663621446D512A157B
:103710004365869462346063918818D3119525447B
:10372000541CB0822CA680444901B4B651081495AB
:1037300049E1468825220A21C5143AA690925AB238
:1037400036962225288021B129001214A9A0A500AF
:103750005043285080A82820204548918082150495
:103760005C60C148310B05932A959C0D19815AB3B1
:10377000922AD2C43892714A158B1D984C76C6286D
:10378000AC625AB38BC24D5942512AA934920901F5
:103790008CA6EA68341A39659255D59430AA8419F2
:1037A0004E49A50C816100CA82440488004044C28D
:1037B000041212912EA8850650468292851020028E
:1037C00029004249839D3A268CA0D864914243A2A5
:1037D000C45A85084894293285490A25A860C245FB
:1037E000A301314642198448603522A4B54A0052EB
:1037F0008A24E6DA635105168B45841A6CA8286B77
:103800008D516BC421B510D35C94C134A810A16450
:103810000209901440A0084481552A510211140055
:1038200050048A4800541400684285D9635D261A02
:103830004CB9285932A568D6B743864D6A34D4D2DC
:10384000469B29AA18DA8AB135C66A951A89992B36
:103850000835CA092580182418AAB2C160A852C523
:1038600002478690628C1033D408CE28A24A08837F
:1038700045AA1012100004810A0AAA226A8280ACAA
:10388000A8A4011105422122A4004A9015B568049C
:10389000188291C1A30456268D48962100B871A0C4
:1038A000128B2228A944D424C624550C4831114A2D
:1038B000C5646690A58820248A2AC392A6154C3434
:1038C0001D55AD30B530714D1963CA482BD6214610
:1038D00015A500589204A9A80042535480400280C4
:1038E00011A94A0201084040501184080022010534
:1038F000CA08166BC669642C58EA89916236419CE5
:10390000DA068C56C9605D9714322A92298BA8D2A8
:10391000A68CACA9329A116B4A66929640802C6DA7
:1039200049A8238BA20A428E488D0CA2C418359553
:10393000842154B1C85A22A644514445441100027E
:103940001204282044122050A4420414020050A261
:103950004988480031D6C19031149A528512645476
:103960001881BA4225E92229349D8240CBCC856D4D
:1039700054704625196342248945CC04A21168215C
:103980002A2A52802445C86494E43561265253198A
:103990002AA68A6A6954AA0A36800011392620129A
:1039A0001100AA480051850A90040A8502905141ED
:1039B00028480411102102508A213A4E8AAA45A5AE
:1039C0006A491B4BC65A04B58A12D5844A4268BA62
:1039D00030236A008B0D315AC4182D9B5630237248
:1039E00019AC055600410029DBAA36126B12881A61
:1039F00099A5A8C655516184142B15B5415B08CC17
:103A00000480914808414000440800802240A020E2
:103A1000100500040201218402044005659A8521F5
:103A20005545B21811B5A03031A4EB08714C2A737A
:103A3000252997054B58917660A28A8133C6D240DA
:103A4000A18E580DC242B009AA08AA84001181A90A
:103A500010AD56A544184531A22A1A33CBA4C2484A
:103A60009A248232A12A2802820409A00044282034
:103A700009080A0A49A0A4101024085248A1148079
:103A8000180568D4A8B209C5CE044E8D8C1310D683
:103A90000CA39108925640D2A4854C891D55546CB4
:103AA000483109AD1A5186E22AB54EE411A44522E7
:103AB0005D245C56CD42A150ABC52A4C1895C4C8B4
:103AC0003092352664922088044080284880A242A3
:103AD000282180088080A0500014094444009000F0
:103AE00000148014C654162B4608B23221B221624B
:103AF00053A8AD21A3584AB554913A291272A35440
:103B0000C228AB12A64A6452E4A47118800820139C
:103B1000A4121010828A234122381C2E502A55A349
:103B2000874832158D4C8891135501569028548141
:103B30000020101001040200252211051541221158
:103B400001114552AA0005803102A19031D74C895C
:103B5000544DD415A856429C5805944A4A4C859613
:103B6000AD09582229C610A519959A09135A0C4770
:103B70005BA6DBA842484AAB5120C83A5587C381AF
:103B80002B51901850A64D6A62A3666AC84888A057
:103B900040140144550240420890002100080410DE
:103BA0004008900020A41008004A50228C41544D37
:103BB0008C202366AB222BA84621294385EA632467
:103BC00025A36A6042B4069D5629CA58C46845E6D2
:103BD0004805A3B084590455988220000A92358480
:103BE000A8502874848E4EC62D5120851954190969
:103BF0003532021A25415411000894A840421100A0
:103C0000921240421042444A0400822288000088F6
:103C100062142AA2639D581910959045319CD4A82E
:103C20006A1418D3D258111B354BF142A1923505B5
:103C300032863219B6EA584D5284718A02298AAA0C
:103C400060298A2A16AD568B7260A131822AD7303C
:103C5000C62944668A4920A410040200AAA00204CE
:103C6000020000004000120085081020A1AA2900CF
:103C70002220252515409555184285C4AA584BBACF
:103C80008C432A5512A3C5282906CCC4C8200AA8EB
:103C90001A4D84EA8D318844011146222C690E6147
:103CA000559054440A846491C14291240C1B5A8C4F
:103CB0004C9410CE3186AB9962240250822054215C
:103CC0004014212B882824881484808820200A040A
:103CD000080100AA888A80004A046228A6B56A33CF
:103CE0004545A40463A8850AC9582A9694E9333245
:103CF000169D5557C430321162CC57B3B64A31992C
:103D00009316A01E20450111545112443AAC4AD1D9
:103D1000D3C4056313434D218C7030441955904C26
:103D20002008828229414840000000012011012220
:103D30000804410951549410022011A8115114870C
:103D400051081188382A52D3185570E434865441EA
:103D50004A14888D6142A42032C6CDCA1923A00816
:103D600049B48A4648A15BC18A28A4A4A124A91207
:103D70008412342E2832D81888B8A296620F8C92FA
:103D8000A6900520082221489010040C51960000AE
:103D900002002890820024A0240121052809240281
:103DA0000404CA708CE5AE5586A52D28C62A0E13CC
:103DB0008A51A3BAA54A556096B5529A8D192034F6
:103DC000C49856D6244355A9A65A84345192521207
:103DD0000A8A044853C98981C58C26A6260619601B
:103DE00015A0226D5149205880000201444420A3AF
:103DF00000011208080202012810810492540AA846
:103E000000A28088A1A0250A621A41AA51188295B1
:103E10002944A1A865AC180552A5A41649084D452A
:103E200050644D832A460929D218A2545184594A14
:103E3000044189485421B3A2A83664742A63914985
:103E400011D1461DAA55D4028CA48280221088501C
:103E500032928948A2240001004000200044104210
:103E600004012002AA042A24040252B515412C455B
:103E7000AAC6754A54B3544B1043C5E8295012A939
:103E8000A4E622A9A692B25C55B1E6442DE6180A32
:103E90002A532695A1BA2222015408095580910A75
:103EA00095186424842C28C251AA2AB85052256A35
:103EB00008250104892940051089042049042804A3
:103EC000120144105054884000A800822028A90AFA
:103ED000AAACD230143108A9A308AA24AEAC2A1681
:103EE000942FED441A119854194D09A1A20A10AA51
:103EF0008211A7E5922C9062140448955489A2542B
:103F00000A5B2AA550C69ADA029253358C14914660
:103F1000AA200010420020814204086A84040102A1
:103F200000108200008011858B020214550192104E
:103F3000898014215153298EE38CA62418D515D2DB
:103F4000411151A14A8000B9C5AC4723A422A44C19
:103F500018D5AB95744C501849C14B19A9B09200B3
:103F6000A9224922E524D0528D31450495488C88F8
:103F700062C34C91105949C908110444ACA22201F2
:103F800051A2004080080028401200201008A040E4
:103F9000002A404A402ACA4C8C8844611862599BC6
:103FA000C624C22D34A68C5AA57A6E063243B09828
:103FB00052D45AA3C62854480AA32AC5A62EA8C478
:103FC000024F25540244148910920AA8628C906B07
:103FD00000A622651538216CE8000024820000004C
:103FE0000108C154A80824102542110412005402EB
:103FF00045A00AAA2A800A01090025026356AA1AC6
:1040000045958240319338804A597384500511D1C7
:1040100089340A458D2A851831468A96D1589132BD
:104020005090472AA92088225491A254AE4D65177A
:1040300019636F900351591AAA85940201E920511E
:1040400008245291A8020A8205430044900084404B
:1040500000220048100540100015208880A2522937
:10406000182195C4AA2A6CAD8C688776A524085BB4
:104070002ED2CA2A54CAB5AA62916AA68CB16161CD
:104080002C85448D2B4B3055549A4289212A490264
:10409000412098C0A618004D2C288464516A4AB566
:1040A000B40004AE200100040041A024599404216E
:1040B0000590000A000012010A401149AA4091220D
:1040C0002A08A900C69A4A3254D1135263165009DD
:1040D0001893A6A081293494AA244854984C1151CD
:1040E000630A1C16835ABA6094348DA2034528646F
:1040F0008A801455B496443D51C6B52201940B12E2
:104100008C12344841B541000040094009284A005A
:1041100084422088A004A9A049444410411084048A
:10412000010A4404004114943164308D230C480981
:1041300018C1ADD4C668511B74944363254B262324
:1041400047A2AC2A98D442A974A4041649895219EA
:10415000A8AA921A5452A2A80A4930828C314AD98C
:10416000484A24A962C980932A0108B81214800819
:104170000001050912218040050010100000010215
:1041800010022052545009A8A0142A418A938B622D
:104190009863A5E6C63A42233106AAC40A4B98940E
:1041A00092B0D198502D42954522B5440913D1A91A
:1041B000A666A8C4525148A180884902D5208955D5
:1041C000628C240601A0924415345A6C90A80042D7
:1041D000800020442084500084D404A410800A4528
:1041E0008040204081484929800220410A020492EF
:1041F000554854194698541931842D948C711432B1
:10420000D5B0664A694D2C462D91B550AA9D483AC5
:10421000D6E82A445010472A210CA70A2A2214A9BA
:10422000229560A815235A71865829B2A98B2401BA
:104230004A224090040004010120042052008050D2
:104240000212001012148A082400000212098514B8
:10425000A050AB04A8B6A2C4B14623448C539069C5
:10426000628AC38C220A9124142243B1924C084ED4
:1042700045402685210691392B6B30559CF310A4BF
:10428000C5954254584A9146AA58818C108094088A
:10429000446090B6A08104684044080808014202C6
:1042A00080921182800000AA0080000200A5B494D0
:1042B000404050A2120000A04501592A0AA958AB5B
:1042C00063A84E161555385395E54A5B4AA9A80AC6
:1042D00049A3D621B8B6915294B12A8694948AA261
:1042E0004008AA52304899028721243151456C2355
:1042F000066A4BD23B1D2948551410150810208022
:10430000224400002A4000681008520092244440D1
:1043100000104100080A040980AA95022AB6045533
:10432000D55286501855A1C0A8A286A8681834A0F6
:10433000A59696D4A65821AC05096CA96B4C44519E
:1043400049495515AFA645098DA64454309AC98CE4
:104350008A2A13D89010202980C24025024102C029
:1043600080440121000288480109001245420000F2
:104370000000000895088822A24052902A002028B8
:104380005149EAA2248C692BC60A543B471951466D
:1043900096468A4B5049612251065A13D2D2035491
:1043A000102329AAA626A2A8205110A452592AA94E
:1043B0008D4420635491A80508C49AC66D29359987
:1043C000E40A203A2200400028200100540042085C
:1043D00080004829228920414082250804112104B7
:1043E000405205828E2412189352128431E12A849D
:1043F00030C6AA3141B161282EA41A9D2AE984C889
:10440000292CB80BCDD8D65550D059469A2CAA4A4B
:10441000A904900442919514226A45AA02202530ED
:10442000125608641450488008040888020000806E
:10443000002A08A222422204002002100420900038
:1044400041444421140092486052C9C668A94C7383
:104450008C1C95698D31558C3A0A1CA7415BC4426E
:1044600094126B36944245E0220520082B2B06312E
:10447000458345A146522AB2A94C486A5D059A1265
:10448000509210834949A612A102015442510121C0
:104490004009080A0A0000108408090008004802C0
:1044A000900025A29010900802A900119BAD363112
:1044B0009514A30823434216628C086384D5C290E6
:1044C000B4802BA84BAD10416AB52A1D996A9B6632
:1044D0009454E8CCA878101428A985495222A191B7
:1044E00082B201490128A958B42410C88C805429EB
:1044F00008002004024040214080804C4083442436
:104500000289004004140A0804C202A040044A843C
:104510004400808C4ACA58D6D4A8B8A01963D618CB
:104520005228356A0B5B5057A040CB9A050AC94206
:10453000469244914A8A13225606AAC29304729460
:104540000999144C694C9C94964004A40B5349243B
:10455000602A008220000080000022940012048063
:10456000A5200001202010082180100142282905E3
:10457000955220022A573763242586212956075B46
:10458000C6182146AD458A15B0248A205DB634642C
:104590006AB124B4B149B22CA1614C9521D1453501
:1045A0004852884AE444C2229492434A0028511057
:1045B00090282482000128290225121110040801E4
:1045C0002400402A00025140040042810425425048
:1045D000101100A000089150D108C818D352515AA8
:1045E0004689D08431C696A912AA51C44B92759AB5
:1045F00002094213914A5B0B0C3409C25C9CB16AFC
:104600009A2A208025A92535133210554B491425A7
:104610000A4108A85656116552288200440000003D
:10462000842021200144015442050804004900006F
:104630008040000240A44509284204040A2225C6FD
:1046400028A82C85A8622A6A8C316954C811AC321A
:10465000246D0445E9E299A84A2580B0628BD42DE7
:1046600003430611445595554802D880A88981AA6C
:10467000A0A421922108201109814A00004248B4D7
:104680001040408400884801400008018040848236
:1046900042024828220A14100A0A10A4412922A121
:1046A00074854A315517C368131D9511638C041323
:1046B00033CC428DD280B2B2141C664634D46D4DD8
:1046C00095602A90E894B1CC938824AA25A907552F
:1046D00045342A005D5A0209088202E8A43620A265
:1046E0004410000102050410100002480920422471
:1046F0004422201010900142902040812021A200ED
:10470000144000048B10B44A8AC03416CCC068AC84
:104710009862B2C88C3235622D364D094B439031C8
:1047200043231222281D456715624C22685592408A
:104730009244502AB282D16A420594A420202800D3
:104740000809918800044AA8400081008100840083
:10475000004920018000128449002000000A000066
:104760008A94005541954851208A0395653A8AA15B
:104770003136064346954D336145881982C922B4C6
:10478000A8A84BCC9C58A9D9C7A2B210AA09A25973
:1047900015A249354929AA4089740815146A030AE3
:1047A000021481A49204240080A001010854004452
:1047B00000041022020091142049A0000085044941
:1047C0004A00144825022A000A0002049D40D864C9
:1047D0009085515A4689B134312AA28C969856A4B4
:1047E0007824994B2655342342864604304C09AB35
:1047F00041A415844A19268A249405AA540A60C83B
:10480000AB908004952020100D2A00250900485007
:104810002200100024908188202A080044000948C2
:104820001540000000208100900480A864225052AE
:10483000022826122E52AA8499624A498CD1186203
:104840002865A192069364A0912A8258A969316BC8
:104850008D22D4489C4AA052A1C4906092429014E8
:1048600022A1122500450A020000104440091488C4
:104870000241020400150028000000008800564193
:1048800080A2400020149024040200820A500A02F0
:1048900001890105550391A9C1A8456B641C54A663
:1048A000630CC714D2125A6AD168131D6A845C85DE
:1048B0005694CC9062D525264385552C5C2A451DFF
:1048C000492D2543494A01525510242820888280C9
:1048D0000C44010100088810024084004A224A2A40
:1048E00022100008411004058182010020002420CC
:1048F0000001A0C854005450002864542C573210B2
:1049000012C32351186330AB0DC985112C16A8C2F0
:104910001473A35A2123224E152A92D1A86808A203
:10492000839112A226400AA82415808C804A820016
:1049300088020810211248200802018048140190C2
:1049400000000080488500201484200014540425B1
:10495000084800085224082481A2002554819A8A1C
:1049600093808CADCD28982AA5984A50623468ACC3
:1049700093C15535C30848A49AD89521A891692CAC
:104980001506A509546C64498896401592A05421D7
:1049900015211102025040028820004400202412F8
:1049A000000110010208000182405282005092244E
:1049B00084805080810011010000429228084A083A
:1049C00022144565485A624222D546954A45958D3E
:1049D000994B1643483A8A8838D5361345056854AA
:1049E000464C1483CAD15274AA0299B425211542A7
:1049F000444A00D648140210002411601504220114
:104A0000428402400248008028425228101420208C
:104A100040250080220200480090002000491049F3
:104A2000064120A549413112B5251939590AA9482D
:104A3000329A626244A0C134B2846156862481C82D
:104A4000A86A16AB39A3CB74212C2D0B49B4440AA8
:104A500092880899A014A128904240222940400041
:104A600000410010000020112001240881000910DD
:104A70000008098A2A082515881024814202440862
:104A80004A0045040010050A14048C450AA8C4868F
:104A900084D154A6896519192B1D3A8A0D531CA17E
:104AA000A9925A355691C144825820099C8280A00F
:104AB000244B0AA52854224402A100844514110065
:104AC000800024294502882410500A404A280041C9
:104AD000301284024021A0000042104010C40104A2
:104AE00010000002008200915145504001516310B6
:104AF000E1162A506A2C2351541044C6D0C2845166
:104B0000D0A8C25A526AA48A21AC342A6D859DA4C9
:104B100043356A5D9390E5528522092A404A443222
:104B2000084984080A2201801048004040014022C0
:104B30000002401002800150120815229500022A3E
:104B4000021210000040104094105201041005158C
:104B5000540018451AC155AB1543982AAAA6AA3184
:104B60000E346BAA271635048C1152549A438AD1FD
:104B7000105A425BA8C811824C2510A828951480B1
:104B800084100089A0002140040800128A00220934
:104B90000520040015200840A00414018000A0088E
:104BA0004028A94050048188200242040100882442
:104BB0008802A080018D4610443AA254A2B44595C3
:104BC0004559554C614B101590C14AEB52AC0DA3A1
:104BD00044A8652A66A5A9805617446922914517FD
:104BE000D228022A00A581540A1540022901A040BA
:104BF0000080008080082148000402080500002C85
:104C0000241008808182040004524802021010001F
:104C10001021210020540A222A401145B3451909C8
:104C20005909AA48318222239A90CAC86A3C911035
:104C3000A542D018AB1510459910546E09A02B123F
:104C40009944BAA009460490204A50A1402A09205C
:104C50000510040050244210044000024840104255
:104C60004020CA800082852224080242418121110D
:104C7000400584100404548916014089802A4A1092
:104C80000CA8C4D684D654A68C6D99C8446D35261C
:104C900095824A4E12AD26C650CAAEB242E62A11DD
:104CA000641340AD443A00556491924882800214E6
:104CB000098120084086402902000942100084A092
:104CC0000112840804022054410028089002A1081F
:104CD000104A8804102000808080022040201200AA
:104CE00045002142D2162A206A2023515310443510
:104CF000320288D14A55ACA1CC1299310D31400C09
:104D0000AD1985669B4895402A816A8A122409B4A8
:104D1000402A0049442A9442102005040041100909
:104D20004244224884002020118812010412050008
:104D300045500800421021020801120112201004FF
:104D40002984402410A2480929A1559B125B98AAE6
:104D5000A8A6AB8A8DB5662C91A8425422C8648C53
:104D6000E24A32A310C4709140A622B590529551E8
:104D7000254922010855102410154010800010A06C
:104D800049084500101100022048040A8200210849
:104D9000004080201001422220438808A00440489F
:104DA0000005458004110A91450904409414A26449
:104DB000C984451516595061604811834C16292B3A
:104DC0005927136318A4C858CA290E4C2E11480A33
:104DD0004BA8482C901209548108021285400804FF
:104DE0002A04800200001051454024300802A080AF
:104DF00010104842482424040A44008884081241C0
:104E000012100410248000294048A1002040A22A4A
:104E10004BAB1409346AAAC8C1822D1C9726AA3448
:104E2000A3E196508450C8144613128621D6A1A33C
:104E3000D184A6A2A422B5824A6002A010E2414811
:104E40002815A142001105A490404A0400120081D7
:104E500080200521000002000180002040900921EF
:104E60005112000280025041001225009220045489
:104E7000152A1110A000AAB68B9154263A6C82C351
:104E800028D154C95414618A6B2A3269B0CC646940
:104E90009C105458245A115911950275150A000096
:104EA00002190825424804141300500101040000AF
:104EB00052800824120A100A22225094905012059F
:104EC000020220840400942004080408090000520F
:104ED00004461082A08048815D2A4540602C235101
:104EE00044137428CA2C4A262ACB1A5510958D04CF
:104EF0004D229112424B2B859905A8244440B50AB6
:104F000040A529520044000880029080884400880F
:104F10002000104A882021804040802000000901A4
:104F200002024040280044520081008950425180D2
:104F30004044120010118228041106248280325B42
:104F40009BC2982A9BC80B5525422191912444A2CB
:104F5000AE42A17A2259444C9594C06A46D04592FB
:104F6000922A48A0AA5002800892213014100028EA
:104F70000280214204214400200400280A090580FF
:104F80004940A40A204811020351100050081002A1
:104F90000411040200008042418454421244A042A1
:104FA000592ACC24443546D54026D08A58ADDC6AEF
:104FB0004A95AB5941355404CD86B1322A492A125B
:104FC000B12A12692955255B1405114821280005CD
:104FD00040044401290904110100122202801281B7
:104FE0008020904800020900850080084000446944
:104FF00004A08248280421201210200894200104D3
:105000008108121005811252328AB108AD512D71FA
:105010008512031495525004B48829D320508488F3
:10502000913480490C8549044400928441524020C7
:10503000001489280A291190820040800802800803
:10504000A8100004240404020090A64450680444FC
:1050500008241202214444008240848880020A42CB
:1050600000022891482208855028C98C8C610AE6E4
:1050700052AC820A6AC868C3648C0AD90A66C4281A
:105080005EAB51664A836AB4A35024B392D469518B
:105090002AA90210884A20062090802410080025A2
:1050A000448808400104042581409050910000107C
:1050B00002154101820040880001200820020902F7
:1050C00000208000224181049248421026853563E9
:1050D000631CD41109437464123795341263F526A6
:1050E000D5912A528114A410A958010B582ACA48F4
:1050F000492A04269114908201A0040085282400E6
:105100004A2208800000201090202100201205046F
:10511000001049021040089210082A254450084205
:105120000A804020520922084808545000020845CD
:105130000110881898C223ACE6340B93C9404A8A00
:10514000AD180090222A558D6AA290AA44A6AAA062
:10515000859111061401A990444201481019802A32
:105160000802001211014205950002250208002ADA
:1051700088002011220204004014A0000042114ABD
:105180000224800880100A0100440842058282023D
:10519000AA502010948A664546359C42198AD04C04
:1051A000349A316540A5AA669894206295554A487C
:1051B0002989455D6A44A47142AA56652AA924A199
:1051C00004442480A2A080404608104020040080AF
:1051D000000090900141084000D0101109480000E3
:1051E000A1008410A04022001002208A2809840017
:1051F000202029080004928241401112318A41ADD9
:10520000A4642D224B658C12364A559146239695FF
:1052100028889026926490421129490AB512001AF2
:1052200084140008402008140808282810002015BD
:1052300040A02008202101082008800400044A40E2
:1052400000025225048469040A12002504A0090002
:1052500002442110090800414A92002014256449A3
:105260008C51AE1053138255A01263A98931A24C00
:10527000B1982128C536455949124928A69024518C
:1052800084A8DAC072CB41A01095800012A2000061
:105290004D0B040005000220040820A288424A1099
:1052A00088508004209000104001124B81C490006F
:1052B0004008842090120484801215040009490AD1
:1052C00042109B8252AC21CD286C35A81B4D18543E
:1052D00064CA14A30A4654C53281308424C924CB3D
:1052E0005125522E5246252A09200A01022814442B
:1052F000A008A0A200204042100880004000044006
:1053000002000144212610000404A10002108020A4
:1053100000100240018220040284900012404020CC
:10532000A84010A010854028A5429C228681C8462E
:10533000C4A0A58B1A25CB18D43109128C5A8453DA
:10534000D222C2248CCA89812911925466950044C4
:10535000088200100C450008B40A080882000240C8
:1053600000A48088A0485001808002100080004482
:105370005000488234A5080510281401205502A2C7
:10538000008101120225440485102D421A3543592B
:105390007136262932564A60C59230C6218A524853
:1053A00062245198050C149252145474C4AC28A36E
:1053B000114A2000403049010120084201008000CC
:1053C0000840081402002000040104502414408105
:1053D000281194000885A2288140215082000000F5
:1053E0000A00400044149488504001912042120960
:1053F000E188A8840EC991924D29341D304C8A3120
:10540000925424A51993AA4458A3414C24412289BB
:105410001202C710AC210481120A024428928000B3
:10542000249500441108014110210102212041046A
:105430009040110000080010121011002415040201
:105440000014242480942848108000000415284467
:105450000A09A5A40C66565AA1144A2C2085C2C27A
:105460008DA2658C2A239218C4480012825414A17C
:105470009A149045A9A4104A4294005080A010109C
:105480000148102808000100840024000000444066
:10549000004110210912020A0102030449412805B2
:1054A0009040502108018000250242018112012113
:1054B0006900822040204012B31121255463A48248
:1054C0009670193462551263415449452925D248D2
:1054D0005582810A414A2A2812534A25294928021D
:1054E0002248820044028480111228112100812464
:1054F000040200084510050040004820C834880018
:10550000002402A84996020820480100882010447F
:1055100024802408044500081485144048AC9A925D
:10552000AA984875698D628B9928A9182A0926B00E
:10553000529A0892285950A014008495CA8814924F
:1055400094A40120001229540010200A0040008475
:1055500008000400201000820002404812490001A7
:10556000028422202A80A91224212080000224847F
:10557000410A8210901000025110AA4241104215B7
:10558000264345651546120904528950465644C5BE
:10559000916450050445A349822425554229694058
:1055A000302649494112120049000000944400206D
:1055B000540041081100104800001000482012015A
:1055C0000000204AA02200820051048092448825D5
:1055D0000080001004002805024402900A01019492
:1055E00014422840D194B298C231A5A4AAA026ABF7
:1055F000B0812A3266128A52A99028245492888255
:10560000144210168B51A42426A90084002982007C
:1056100000000484011400200412020001428004EE
:1056200002040090889414004855140822845225DE
:10563000299140889204000190A001802001A000DF
:1056400050845401400802150C220946398C505AE6
:10565000511AD0140B74494910492488562A95923E
:1056600021494228A1004541502C118A10022440B2
:1056700008401154203080209000080120000811BB
:10568000041000108000080001008010110100418A
:105690000800008000240522001004200004541299
:1056A0000A100844051002580581A8406395B431DA
:1056B00084620A2584A50DC2D40AA492CAA451A565
:1056C000204142459534344504AA2A94AE82A45020
:1056D000855012084284A0000A8922885249000895
:1056E000480010801004820215204122201121025E
:1056F000A4244208002942149540500800012002C9
:105700002100020440428210000189025024011548
:1057100098084B8C6B1595906B48A23C22651269DA
:10572000240A04529516282848890892900040219E
:105730002135492A502A242110294A80205000224C
:10574000080680800040040041A00000000208001C
:10575000024404200000080044801801009504540D
:10576000098000000092A8000108200251A02054E6
:10577000055054402542206390A8604E00260C83BB
:105780009D80A986537553294A4053422524A20877
:105790000288928894889284148400000000111575
:1057A00001400040E0300810120000000000080135
:1057B00000084020400090082A92804011020140D9
:1057C0004A2A0A01000A0208440005082841082460
:1057D00004040401400981168A28DD182A5619A1FB
:1057E0005DD1A2284036443088828884252D042D3E
:1057F0005253155248220804422221304251920845
:10580000A080A04040108408148A40060080222412
:10581000144900249500121200A2004080000204E6
:105820000028541520814190404010000010904203
:10583000012892000021518414205040310402C6F6
:10584000C4414654A22C48D6B68932CB2554435283
:105850004882D1908408C0842289A2A214894A8AED
:10586000B82A00200A08520815C2022081641011CB
:105870004400008040000202002000004208401066
:1058800000441080900002408568000412018020CE
:10589000004105008802001454880411419505292F
:1058A00084526929323A908A9482160109648D24BF
:1058B0005221282925292C4A51D4262A142048105F
:1058C00041520241018424010020885080001900C7
:1058D00050020804104009000000008800048040C5
:1058E00008420A0208000200020A89083002122156
:1058F000002802004808980441A8A440010240047E
:10590000080050042900965289844B61624A91FA3A
:10591000E41262918D9492049A840225AA22105175
:1059200080C412AA14042814D4B200442500200212
:10593000009244A50291421104000000852010004D
:105940004840101042000048809240904840209209
:105950008A504084A4842042012001201441000088
:1059600008401240225504A182AA212D525324122C
:105970001CA94A05134C0826604A45AA4152A9921F
:105980001495CA044A1281054049864822058800B8
:10599000000110202440200050040948A1A0252027
:1059A0000008852802020205004944001200000296
:1059B00000008A0000822410005200009000940031
:1059C00040148894A21489158800510A28009C80EC
:1059D000ADA84A49C24612A8AC23A5D81A25205121
:1059E0002C095448C148215220486CD0152051122E
:1059F00048D2000955004044010452210000A4008F
:105A0000084810012801000400482040100010122E
:105A100000080800498A00245508804842000912FD
:105A2000020802840A81210000004080224A0A9074
:105A3000852A4255401591942930E9464250520436
:105A4000C590952A93540A352AA50C250AA5020566
:105A500040950484902C018000001100402004082F
:105A6000A250011150202200004008A0480100105F
:105A700042120080108200900000280920251402A4
:105A80001049008000002020002240041049121418
:105A9000880020412091B50A35CA6A22548B04112E
:105AA000B5AA895228254A8448A26182901AA292F6
:105AB000A110545014402251248120124808404122
:105AC0000A00002008022684859000081200800841
:105AD000005442020440120484284402221042402E
